{
  "contractName": "CrowdFunding",
  "abi": [
    {
      "inputs": [
        {
          "internalType": "string",
          "name": "contractName",
          "type": "string"
        },
        {
          "internalType": "uint256",
          "name": "targetAmountEth",
          "type": "uint256"
        },
        {
          "internalType": "uint256",
          "name": "durationInMin",
          "type": "uint256"
        },
        {
          "internalType": "address payable",
          "name": "beneficiaryAddress",
          "type": "address"
        }
      ],
      "payable": false,
      "stateMutability": "nonpayable",
      "type": "constructor"
    },
    {
      "anonymous": false,
      "inputs": [
        {
          "indexed": false,
          "internalType": "address",
          "name": "addr",
          "type": "address"
        },
        {
          "indexed": false,
          "internalType": "uint256",
          "name": "totalCollected",
          "type": "uint256"
        },
        {
          "indexed": false,
          "internalType": "bool",
          "name": "succeeded",
          "type": "bool"
        }
      ],
      "name": "CampaignFinished",
      "type": "event"
    },
    {
      "constant": true,
      "inputs": [
        {
          "internalType": "address",
          "name": "",
          "type": "address"
        }
      ],
      "name": "amounts",
      "outputs": [
        {
          "internalType": "uint256",
          "name": "",
          "type": "uint256"
        }
      ],
      "payable": false,
      "stateMutability": "view",
      "type": "function"
    },
    {
      "constant": true,
      "inputs": [],
      "name": "beneficiary",
      "outputs": [
        {
          "internalType": "address payable",
          "name": "",
          "type": "address"
        }
      ],
      "payable": false,
      "stateMutability": "view",
      "type": "function"
    },
    {
      "constant": true,
      "inputs": [],
      "name": "collected",
      "outputs": [
        {
          "internalType": "bool",
          "name": "",
          "type": "bool"
        }
      ],
      "payable": false,
      "stateMutability": "view",
      "type": "function"
    },
    {
      "constant": true,
      "inputs": [],
      "name": "fundingDeadline",
      "outputs": [
        {
          "internalType": "uint256",
          "name": "",
          "type": "uint256"
        }
      ],
      "payable": false,
      "stateMutability": "view",
      "type": "function"
    },
    {
      "constant": true,
      "inputs": [],
      "name": "name",
      "outputs": [
        {
          "internalType": "string",
          "name": "",
          "type": "string"
        }
      ],
      "payable": false,
      "stateMutability": "view",
      "type": "function"
    },
    {
      "constant": true,
      "inputs": [],
      "name": "owner",
      "outputs": [
        {
          "internalType": "address",
          "name": "",
          "type": "address"
        }
      ],
      "payable": false,
      "stateMutability": "view",
      "type": "function"
    },
    {
      "constant": true,
      "inputs": [],
      "name": "state",
      "outputs": [
        {
          "internalType": "enum CrowdFunding.State",
          "name": "",
          "type": "uint8"
        }
      ],
      "payable": false,
      "stateMutability": "view",
      "type": "function"
    },
    {
      "constant": true,
      "inputs": [],
      "name": "targetAmount",
      "outputs": [
        {
          "internalType": "uint256",
          "name": "",
          "type": "uint256"
        }
      ],
      "payable": false,
      "stateMutability": "view",
      "type": "function"
    },
    {
      "constant": true,
      "inputs": [],
      "name": "totalCollected",
      "outputs": [
        {
          "internalType": "uint256",
          "name": "",
          "type": "uint256"
        }
      ],
      "payable": false,
      "stateMutability": "view",
      "type": "function"
    },
    {
      "constant": false,
      "inputs": [],
      "name": "contribute",
      "outputs": [],
      "payable": true,
      "stateMutability": "payable",
      "type": "function"
    },
    {
      "constant": false,
      "inputs": [],
      "name": "finishCrowdFunding",
      "outputs": [],
      "payable": false,
      "stateMutability": "nonpayable",
      "type": "function"
    },
    {
      "constant": false,
      "inputs": [],
      "name": "collect",
      "outputs": [],
      "payable": false,
      "stateMutability": "nonpayable",
      "type": "function"
    },
    {
      "constant": false,
      "inputs": [],
      "name": "withdraw",
      "outputs": [],
      "payable": false,
      "stateMutability": "nonpayable",
      "type": "function"
    },
    {
      "constant": true,
      "inputs": [],
      "name": "beforeDeadline",
      "outputs": [
        {
          "internalType": "bool",
          "name": "",
          "type": "bool"
        }
      ],
      "payable": false,
      "stateMutability": "view",
      "type": "function"
    },
    {
      "constant": true,
      "inputs": [],
      "name": "getTotalCollected",
      "outputs": [
        {
          "internalType": "uint256",
          "name": "",
          "type": "uint256"
        }
      ],
      "payable": false,
      "stateMutability": "view",
      "type": "function"
    },
    {
      "constant": true,
      "inputs": [],
      "name": "inProgress",
      "outputs": [
        {
          "internalType": "bool",
          "name": "",
          "type": "bool"
        }
      ],
      "payable": false,
      "stateMutability": "view",
      "type": "function"
    },
    {
      "constant": true,
      "inputs": [],
      "name": "isSuccessful",
      "outputs": [
        {
          "internalType": "bool",
          "name": "",
          "type": "bool"
        }
      ],
      "payable": false,
      "stateMutability": "view",
      "type": "function"
    }
  ],
  "bytecode": "0x60806040523480156200001157600080fd5b50604051620011f0380380620011f0833981810160405260808110156200003757600080fd5b81019080805160405193929190846401000000008211156200005857600080fd5b838201915060208201858111156200006f57600080fd5b82518660018202830111640100000000821117156200008d57600080fd5b8083526020830192505050908051906020019080838360005b83811015620000c3578082015181840152602081019050620000a6565b50505050905090810190601f168015620000f15780820380516001836020036101000a031916815260200191505b5060405260200180519060200190929190805190602001909291908051906020019092919050505083600090805190602001906200013192919062000322565b5073__Utils_________________________________63d8916bb9846040518263ffffffff1660e01b81526004018082815260200191505060206040518083038186803b1580156200018257600080fd5b505af415801562000197573d6000803e3d6000fd5b505050506040513d6020811015620001ae57600080fd5b810190808051906020019092919050505060018190555073__Utils_________________________________63529b380f836040518263ffffffff1660e01b81526004018082815260200191505060206040518083038186803b1580156200021557600080fd5b505af41580156200022a573d6000803e3d6000fd5b505050506040513d60208110156200024157600080fd5b8101908080519060200190929190505050620002626200031a60201b60201c565b0160028190555080600360006101000a81548173ffffffffffffffffffffffffffffffffffffffff021916908373ffffffffffffffffffffffffffffffffffffffff16021790555033600460006101000a81548173ffffffffffffffffffffffffffffffffffffffff021916908373ffffffffffffffffffffffffffffffffffffffff1602179055506000600460146101000a81548160ff021916908360038111156200030b57fe5b021790555050505050620003d1565b600042905090565b828054600181600116156101000203166002900490600052602060002090601f016020900481019282601f106200036557805160ff191683800117855562000396565b8280016001018555821562000396579182015b828111156200039557825182559160200191906001019062000378565b5b509050620003a59190620003a9565b5090565b620003ce91905b80821115620003ca576000816000905550600101620003b0565b5090565b90565b610e0f80620003e16000396000f3fe6080604052600436106100fe5760003560e01c80638735181311610095578063d7bb99ba11610064578063d7bb99ba146103f0578063e29eb836146103fa578063e522538114610425578063ec4cd0cf1461043c578063fbe5d87e1461046b576100fe565b806387351813146103065780638da5cb5b14610335578063953b8fb81461038c578063c19d93fb146103b7576100fe565b806355a3b2c1116100d157806355a3b2c11461021857806368bc00411461027d578063796b23bb146102ac57806384bcefd4146102d7576100fe565b806306fdde0314610103578063083dca111461019357806338af3eed146101aa5780633ccfd60b14610201575b600080fd5b34801561010f57600080fd5b50610118610496565b6040518080602001828103825283818151815260200191508051906020019080838360005b8381101561015857808201518184015260208101905061013d565b50505050905090810190601f1680156101855780820380516001836020036101000a031916815260200191505b509250505060405180910390f35b34801561019f57600080fd5b506101a8610534565b005b3480156101b657600080fd5b506101bf61071b565b604051808273ffffffffffffffffffffffffffffffffffffffff1673ffffffffffffffffffffffffffffffffffffffff16815260200191505060405180910390f35b34801561020d57600080fd5b50610216610741565b005b34801561022457600080fd5b506102676004803603602081101561023b57600080fd5b81019080803573ffffffffffffffffffffffffffffffffffffffff16906020019092919050505061099d565b6040518082815260200191505060405180910390f35b34801561028957600080fd5b506102926109b5565b604051808215151515815260200191505060405180910390f35b3480156102b857600080fd5b506102c16109c8565b6040518082815260200191505060405180910390f35b3480156102e357600080fd5b506102ec6109ce565b604051808215151515815260200191505060405180910390f35b34801561031257600080fd5b5061031b6109e1565b604051808215151515815260200191505060405180910390f35b34801561034157600080fd5b5061034a610a40565b604051808273ffffffffffffffffffffffffffffffffffffffff1673ffffffffffffffffffffffffffffffffffffffff16815260200191505060405180910390f35b34801561039857600080fd5b506103a1610a66565b6040518082815260200191505060405180910390f35b3480156103c357600080fd5b506103cc610a6c565b604051808260038111156103dc57fe5b60ff16815260200191505060405180910390f35b6103f8610a7f565b005b34801561040657600080fd5b5061040f610bff565b6040518082815260200191505060405180910390f35b34801561043157600080fd5b5061043a610c05565b005b34801561044857600080fd5b50610451610d50565b604051808215151515815260200191505060405180910390f35b34801561047757600080fd5b50610480610d7f565b6040518082815260200191505060405180910390f35b60008054600181600116156101000203166002900480601f01602080910402602001604051908101604052809291908181526020018280546001816001161561010002031660029004801561052c5780601f106105015761010080835404028352916020019161052c565b820191906000526020600020905b81548152906001019060200180831161050f57829003601f168201915b505050505081565b600080600381111561054257fe5b600460149054906101000a900460ff16600381111561055d57fe5b146105d0576040517f08c379a000000000000000000000000000000000000000000000000000000000815260040180806020018281038252600d8152602001807f496e76616c69642073746174650000000000000000000000000000000000000081525060200191505060405180910390fd5b6105d86109b5565b1561062e576040517f08c379a0000000000000000000000000000000000000000000000000000000008152600401808060200182810382526028815260200180610db36028913960400191505060405180910390fd5b600660009054906101000a900460ff1661066b576001600460146101000a81548160ff0219169083600381111561066157fe5b0217905550610690565b6002600460146101000a81548160ff0219169083600381111561068a57fe5b02179055505b7f6fa7e87ebbd87ed4f1c40bba63144f68fd2bb022fb748ab3b61b5411c39bd47430600754600660009054906101000a900460ff16604051808473ffffffffffffffffffffffffffffffffffffffff1673ffffffffffffffffffffffffffffffffffffffff16815260200183815260200182151515158152602001935050505060405180910390a150565b600360009054906101000a900473ffffffffffffffffffffffffffffffffffffffff1681565b600180600381111561074f57fe5b600460149054906101000a900460ff16600381111561076a57fe5b146107dd576040517f08c379a000000000000000000000000000000000000000000000000000000000815260040180806020018281038252600d8152602001807f496e76616c69642073746174650000000000000000000000000000000000000081525060200191505060405180910390fd5b6000600560003373ffffffffffffffffffffffffffffffffffffffff1673ffffffffffffffffffffffffffffffffffffffff1681526020019081526020016000205411610892576040517f08c379a00000000000000000000000000000000000000000000000000000000081526004018080602001828103825260178152602001807f4e6f7468696e672077617320636f6e747269627574656400000000000000000081525060200191505060405180910390fd5b6000600560003373ffffffffffffffffffffffffffffffffffffffff1673ffffffffffffffffffffffffffffffffffffffff1681526020019081526020016000205490506000600560003373ffffffffffffffffffffffffffffffffffffffff1673ffffffffffffffffffffffffffffffffffffffff168152602001908152602001600020819055503373ffffffffffffffffffffffffffffffffffffffff166108fc829081150290604051600060405180830381858888f193505050506109995780600560003373ffffffffffffffffffffffffffffffffffffffff1673ffffffffffffffffffffffffffffffffffffffff168152602001908152602001600020819055505b5050565b60056020528060005260406000206000915090505481565b60006002546109c2610d89565b10905090565b60025481565b600660009054906101000a900460ff1681565b60008060038111156109ef57fe5b600460149054906101000a900460ff166003811115610a0a57fe5b1480610a3b575060026003811115610a1e57fe5b600460149054906101000a900460ff166003811115610a3957fe5b145b905090565b600460009054906101000a900473ffffffffffffffffffffffffffffffffffffffff1681565b60015481565b600460149054906101000a900460ff1681565b6000806003811115610a8d57fe5b600460149054906101000a900460ff166003811115610aa857fe5b14610b1b576040517f08c379a000000000000000000000000000000000000000000000000000000000815260040180806020018281038252600d8152602001807f496e76616c69642073746174650000000000000000000000000000000000000081525060200191505060405180910390fd5b610b236109b5565b610b78576040517f08c379a0000000000000000000000000000000000000000000000000000000008152600401808060200182810382526021815260200180610d926021913960400191505060405180910390fd5b34600560003373ffffffffffffffffffffffffffffffffffffffff1673ffffffffffffffffffffffffffffffffffffffff168152602001908152602001600020600082825401925050819055503460076000828254019250508190555060015460075410610bfc576001600660006101000a81548160ff0219169083151502179055505b50565b60075481565b6002806003811115610c1357fe5b600460149054906101000a900460ff166003811115610c2e57fe5b14610ca1576040517f08c379a000000000000000000000000000000000000000000000000000000000815260040180806020018281038252600d8152602001807f496e76616c69642073746174650000000000000000000000000000000000000081525060200191505060405180910390fd5b600360009054906101000a900473ffffffffffffffffffffffffffffffffffffffff1673ffffffffffffffffffffffffffffffffffffffff166108fc6007549081150290604051600060405180830381858888f1935050505015610d28576003600460146101000a81548160ff02191690836003811115610d1e57fe5b0217905550610d4d565b6001600460146101000a81548160ff02191690836003811115610d4757fe5b02179055505b50565b6000600380811115610d5e57fe5b600460149054906101000a900460ff166003811115610d7957fe5b14905090565b6000600754905090565b60004290509056fe4e6f20636f6e747269627574696f6e73206166746572206120646561646c696e6543616e6e6f742066696e6973682063616d706169676e206265666f7265206120646561646c696e65a265627a7a72315820d132987930e5f7e90d32987eb7c6decb8240c7c32c16ba9f4a10f6df6d4af9ec64736f6c63430005100032",
  "source": "pragma solidity ^0.5.0;\n\nimport \"./Utils.sol\";\n\ncontract CrowdFunding {\n\n    using Utils for *;\n\n    enum State { Ongoing, Failed, Succeeded, PaidOut }\n\n    event CampaignFinished(\n        address addr,\n        uint totalCollected,\n        bool succeeded\n    );\n\n    string public name;\n    uint public targetAmount;\n    uint public fundingDeadline;\n    address payable public beneficiary;\n    address public owner;\n    State public state;\n    mapping(address => uint) public amounts;\n    bool public collected;\n    uint public totalCollected;\n\n    modifier inState(State expectedState) {\n        require(state == expectedState, \"Invalid state\");\n        _;\n    }\n\n    constructor(\n        string memory contractName,\n        uint targetAmountEth,\n        uint durationInMin,\n        address payable beneficiaryAddress\n    )\n        public\n    {\n        name = contractName;\n        targetAmount = Utils.etherToWei(targetAmountEth);\n        fundingDeadline = currentTime() +\n            Utils.minutesToSeconds(durationInMin);\n        beneficiary = beneficiaryAddress;\n        owner = msg.sender;\n        state = State.Ongoing;\n    }\n\n    function contribute() public payable inState(State.Ongoing) {\n        require(beforeDeadline(), \"No contributions after a deadline\");\n        amounts[msg.sender] += msg.value;\n        totalCollected += msg.value;\n\n        if (totalCollected >= targetAmount) {\n            collected = true;\n        }\n    }\n\n    function finishCrowdFunding() public inState(State.Ongoing) {\n        require(!beforeDeadline(), \"Cannot finish campaign before a deadline\");\n\n        if (!collected) {\n            state = State.Failed;\n        } else {\n            state = State.Succeeded;\n        }\n\n        emit CampaignFinished(address(this), totalCollected, collected);\n    }\n\n    function collect() public inState(State.Succeeded) {\n        if (beneficiary.send(totalCollected)) {\n            state = State.PaidOut;\n        } else {\n            state = State.Failed;\n        }\n    }\n\n    function withdraw() public inState(State.Failed) {\n        require(amounts[msg.sender] > 0, \"Nothing was contributed\");\n        uint contributed = amounts[msg.sender];\n        amounts[msg.sender] = 0;\n\n        if (!msg.sender.send(contributed)) {\n            amounts[msg.sender] = contributed;\n        }\n    }\n\n    function beforeDeadline() public view returns(bool) {\n        return currentTime() < fundingDeadline;\n    }\n\n    function currentTime() internal view returns(uint) {\n        return now;\n    }\n\n    function getTotalCollected() public view returns(uint) {\n        return totalCollected;\n    }\n\n    function inProgress() public view returns (bool) {\n        return state == State.Ongoing || state == State.Succeeded;\n    }\n\n    function isSuccessful() public view returns (bool) {\n        return state == State.PaidOut;\n    }\n}",
  "sourcePath": "/Users/miltontulli/Documents/proyectos/crowdfunding/contracts/CrowdFunding.sol",
  "compiler": {
    "name": "solc",
    "version": "0.5.16+commit.9c3226ce.Emscripten.clang"
  },
  "schemaVersion": "3.4.3",
  "updatedAt": "2021-10-02T17:28:10.377Z",
  "networkType": "ethereum",
  "devdoc": {
    "methods": {}
  },
  "userdoc": {
    "methods": {}
  }
}